:020000040000FA
:100000000C94E0000C945D090C9436090C940801E2
:100010000C9408010C9408010C9408010C9408013C
:100020000C9408010C9408010C9408010C9408012C
:100030000C9408010C9408010C9408010C9408011C
:100040000C94EC080C9408010C94AA090C948409F3
:100050000C9408010C9408010C9408010C940801FC
:100060000C9408010C94080100407A10F35A00A087
:10007000724E18090010A5D4E80000E87648170071
:1000800000E40B54020000CA9A3B000000E1F505B1
:10009000000080969800000040420F000000A086FB
:1000A00001000000102700000000E803000000002D
:1000B0006400000000000A000000000001000000D1
:1000C00000002C76D888DC674F0823DFC1DFAE59EB
:1000D000E1B1B796E5E3E453C63AE651997696E87E
:1000E000E6C28426EB898C9B62ED407C6FFCEFBC02
:1000F0009C9F40F2BAA56FA5F490055A2AF75C932D
:100100006B6CF9676DC11BFCE0E40D47FEF520E662
:10011000B500D0ED902E0300943577050080841E45
:10012000080000204E0A000000C80C333333330FA0
:10013000986E12831141EF8D2114893BE65516CF3D
:10014000FEE6DB18D1844B381BF77C1D901DA4BB49
:10015000E424203284725E228100C9F124ECA1E5FE
:100160003D2700000000240027002A0000000000B6
:10017000250028002B0000000008000201000003F9
:100180000407000000000000000000000000230041
:1001900026002900040404040404040402020202E8
:1001A000020203030303030301020408102040803A
:1001B000010204081020010204081020DC09840C4C
:1001C00011241FBECFEFD8E0DEBFCDBF24E0A6E6EE
:1001D000B3E001C01D92A733B207E1F713E0A0E03E
:1001E000B1E0E8EEF5E202C005900D92A636B10747
:1001F000D9F710E0CFEDD0E004C02197FE010E94B6
:10020000EF10CE3DD107C9F70E943A0A0C94E712CD
:100210000C940000CF92DF92EF92FF92CF93DF9386
:10022000B0912704A0E08111AB2F8091280490E0C9
:10023000880F991FAC0146575E4FC0902D04D09097
:100240002E04E0902F04F090300430E020E0FA011A
:10025000C591D491E881B90190E080E0EB23EA13E5
:100260000AC02F5F3F4F6C157D058E059F0578F303
:100270006FEF7FEFCB01DF91CF91FF90EF90DF9099
:10028000CF90089590E0FC01EA58FE4F2491FC01C4
:10029000E855FE4F3491FC01EC56FE4FE491EE23FD
:1002A000C9F0222339F0233001F1A8F4213019F1EB
:1002B000223029F1F0E0EE0FFF1FE459FE4FA59127
:1002C000B4918FB7F894EC91611126C030953E231C
:1002D0003C938FBF08952730A9F02830C9F024300F
:1002E00049F7809180008F7D03C0809180008F77D7
:1002F00080938000DFCF84B58F7784BDDBCF84B55A
:100300008F7DFBCF8091B0008F778093B000D2CFEC
:100310008091B0008F7DF9CF3E2BDACFFF920F9303
:100320001F93CF93DF93082F162FF42EC22FD8E000
:100330006C2FF11015C06170802F0E944201C6958C
:1003400061E0812F0E94420160E0812F0E94420102
:10035000D15071F7DF91CF911F910F91FF900895C8
:10036000661F6627661F802F0E944201CC0FE8CFD0
:10037000CF93DF9390E0FC01E855FE4F24918C561B
:100380009E4FFC0184918823D1F090E0880F991F43
:10039000FC01EE59FE4FA591B491FC01E459FE4FCA
:1003A000C591D491623071F49FB7F8943C91822F3B
:1003B000809583238C93E8812E2B28839FBFDF9128
:1003C000CF9108958FB7F894EC912E2B2C938FBF7B
:1003D000F6CF3FB7F8948091670390916803A0919E
:1003E0006903B0916A0326B5A89B05C02F3F19F099
:1003F0000196A11DB11D3FBFBA2FA92F982F8827A5
:10040000BC01CD01620F711D811D911D42E0660F7F
:10041000771F881F991F4A95D1F708958F929F9251
:10042000AF92BF92CF92DF92EF92FF924B015C01AD
:100430000E94E9016B017C010E94E9016C197D09B0
:100440008E099F09683E734081059105A8F321E05C
:10045000821A9108A108B10888EEC80E83E0D81E60
:10046000E11CF11C81149104A104B10429F7FF904F
:10047000EF90DF90CF90BF90AF909F908F900895B6
:10048000CF92DF92EF92FF920F931F93CF93DF9360
:10049000CDB7DEB7C054D1400FB6F894DEBF0FBE63
:1004A000CDBF2FB7F89480916B0390916C03A0910E
:1004B0006D03B0916E032FBF4091290450912A041F
:1004C00060912B0470912C048C019D01041B150B71
:1004D000260B370BB901A801403D57406105710556
:1004E00090F480913104C05CDE4F0FB6F894DEBF0B
:1004F0000FBECDBFDF91CF911F910F91FF90EF9075
:10050000DF90CF9008958093290490932A04A093BC
:100510002B04B0932C041092240410922304109204
:100520002204109221041092200462E0809125049C
:100530000E94B80161E070E080E090E00E940E024D
:1005400061E0809125040E94B80160E0809125045B
:100550000E944201809126048551823020F58BE271
:1005600091E10197F1F762E0809125040E94B801C2
:100570008091320490E08230910538F0880F991F05
:10058000880F991F05970197F1F7F89480E00E9472
:100590000A016F3F7F4F8F4F9F4F61F410923104DC
:1005A000789480E0A0CF64E170E080E090E00E9469
:1005B0000E02D9CF81E00E940A016F3F7F4F8F4F1B
:1005C0009F4F61F38E010F5F1F4F6E018FEBC81AB3
:1005D0008EEFD80A780180E00E940A01F70160835B
:1005E00071838283938381E00E940A01F70164830F
:1005F000758386839783F8E0EF0EF11CEC14FD04FD
:1006000051F7789430E020E0F801C080D180E2809A
:10061000F3804481558166817781FFEFCF16DF0635
:10062000EF06FF0631F04F3F8FEF58076807780756
:1006300019F410923104B5CFF90183E0F595E795EF
:100640008A95E1F7E05EFB4F8081880FC416D506DE
:10065000E606F70610F180832F5F3F4F085F1F4FBC
:100660002832310589F6409124042091200480919C
:100670002104280F3327331F80912204280F311DB6
:1006800080912304820F932F911D992748171906F3
:1006900081F681E08093310426CF8160DCCF08951C
:1006A0000895AF92BF92CF92DF92EF92FF920F9395
:1006B0001F93CF93DF936C017B018B01040F151FF8
:1006C000EB015E01AE18BF08C017D10759F0699160
:1006D000D601ED91FC910190F081E02DC6010995C4
:1006E000892B79F7C501DF91CF911F910F91FF9071
:1006F000EF90DF90CF90BF90AF900895FC01538DA5
:10070000448D252F30E0842F90E0821B930B5417EB
:1007100010F0CF96089501970895FC01918D828D78
:10072000981761F0A28DAE0FBF2FB11D5D968C9111
:10073000928D9F5F9F73928F90E008958FEF9FEF50
:100740000895FC01918D828D981731F0828DE80F0C
:10075000F11D858D90E008958FEF9FEF0895FC01C6
:10076000918D228D892F90E0805C9F4F821B910993
:100770008F739927089581E793E00E94AF0321E0EA
:10078000892B09F420E0822F089580E090E0892BE6
:1007900029F00E94BB0381110C9400000895FC0114
:1007A000A48DA80FB92FB11DA35ABF4F2C91848DD2
:1007B00090E001968F739927848FA689B7892C932F
:1007C000A089B1898C91837080648C93938D848D82
:1007D000981306C00288F389E02D80818F7D808385
:1007E0000895EF92FF920F931F93CF93DF93EC0145
:1007F00081E0888F9B8D8C8D98131AC0E889F989C8
:10080000808185FF15C09FB7F894EE89FF896083CA
:10081000E889F98980818370806480839FBF81E04B
:1008200090E0DF91CF911F910F91FF90EF9008958D
:10083000F62E0B8D10E00F5F1F4F0F731127E02E68
:100840008C8D8E110CC00FB607FCFACFE889F989A0
:10085000808185FFF5CFCE010E94CF03F1CFEB8DD4
:10086000EC0FFD2FF11DE35AFF4FF0829FB7F89474
:100870000B8FEA89FB8980818062CFCFCF93DF9392
:10088000EC01888D8823B9F0AA89BB89E889F989A8
:100890008C9185FD03C0808186FD0DC00FB607FCDD
:1008A000F7CF8C9185FFF2CF808185FFEDCFCE0110
:1008B0000E94CF03E9CFDF91CF910895CF92DF92CD
:1008C000EF92FF920F931F93CF93DF93CAE2D1E091
:1008D00004E011E060E08BE00E944201680183E0E7
:1008E000E82EF12CF601208D40E06DE08CE00E94B6
:1008F0008E01F1E0EF1AF10888E0C81AD108EFEF95
:10090000EE16FE0679F7299140E06AE089E00E9440
:100910008E0161E08BE00E9442010F5F1F4FF1E00A
:10092000C233DF07B9F6DF91CF911F910F91FF908E
:10093000EF90DF90CF900895CF92DF92EF92FF92E9
:100940000F931F93CF93DF93CAE2D1E004E011E04D
:1009500060E08BE00E9442016801F12CE12CF6017D
:10096000208140E06DE08CE00E948E01FFEFEF1AE5
:10097000FF0A88E0C80ED11CE4E0EE16F10479F716
:10098000299141E06AE089E00E948E0161E08BE0FC
:100990000E9442010F5F1F4FF1E0C233DF07C1F633
:1009A000DF91CF911F910F91FF90EF90DF90CF904B
:1009B000089542E050E06CEA72E081E793E00C9425
:1009C0005103CF93DF93FC0101900020E9F73197A9
:1009D000AF01481B590BBC0181E793E00E94510312
:1009E000EC010E94D9048C0F9D1FDF91CF910895D7
:1009F000E4E0F1E08FEF80838183828383838483CB
:100A0000858386838783389691E0E432F90799F7E6
:100A10008EEA92E00E94E1048FEA92E00C94E104F5
:100A200080916F03811104C08DEB92E00C94E1047E
:100A30000E94F80410926F038EEA92E00E94E10493
:100A40008DED92E0F3CFCF93DF93FC01448155818C
:100A50006081718181E793E00E945103EC010E9463
:100A6000D9048C0F9D1FDF91CF9108950F931F9391
:100A7000CF93DF938C01EB01FC0180819181009782
:100A8000E1F06881798161157105A9F04281538196
:100A90002C813D814217530770F00E94E0128C8137
:100AA0009D81F801958384831D821C82DF91CF9103
:100AB0001F910F9108950E94911188819981F801E9
:100AC000918380838A819B81938382838C819D81A2
:100AD00095838483198218821B821A82E5CFCF9373
:100AE000DF93EC0188819981009711F00E949111A8
:100AF000198218821D821C821B821A82DF91CF917B
:100B00000895FC0180819181009711F00C9491115E
:100B100008950F931F93CF93DF93EC018881998100
:100B2000009759F02A813B812617370730F081E082
:100B3000DF91CF911F910F9108958B016F5F7F4FD0
:100B40000E941A12009759F0998388831B830A83A5
:100B50002C813D81232B59F7FC011082E8CF80E0E6
:100B6000E7CFEF92FF920F931F93CF93DF9361151F
:100B7000710541F480E0DF91CF911F910F91FF90BB
:100B8000EF90089541155105B1F07B01EC010C8106
:100B90001D81040F151FB8010E948905882351F398
:100BA000288139818C819D81B701820F931F0E941A
:100BB000E0121D830C8381E0DECFEF92FF920F9352
:100BC0001F93CF93DF9300D000D0CDB7DEB77C0169
:100BD000862F4AE08E010F5F1F4FB80190E00E9400
:100BE000AE0CF80101900020E9F73197AF01401BEE
:100BF000510BB801C7010E94B105811103C0C701A3
:100C00000E946F05C7010F900F900F900F90DF911A
:100C1000CF911F910F91FF90EF900895CF93DF93A5
:100C2000EC01FB0101900020E9F73197AF01461B71
:100C3000570B0E94B105811103C0CE010E946F05C0
:100C4000CE01DF91CF910895CF93DF93EC01FB01AB
:100C500044815581608171810E94B105811103C079
:100C6000CE010E946F05CE01DF91CF910895EF92E2
:100C7000FF920F931F93CF93DF93EC017B018A01C7
:100C8000BA010E94890581110BC0CE010E946F0537
:100C9000CE01DF91CF911F910F91FF90EF900895BA
:100CA0001D830C83B701888199810E94E012F0CFE7
:100CB000FB0101900020E9F73197AF01461B570B6C
:100CC0000C943706CF93DF93EC01FB01861797074F
:100CD00049F0608171816115710541F04481558150
:100CE0000E943706CE01DF91CF9108950E946F05D3
:100CF000F9CFFC01118210821382128215821482B4
:100D00000C946206FC0111821082138212821582F9
:100D10001482FB0101900020E9F73197AF01461BD7
:100D2000570B0C9437063F924F925F926F927F92CF
:100D30008F929F92AF92BF92CF92DF92EF92FF92EB
:100D40000F931F93CF93DF9300D000D000D0CDB787
:100D5000DEB75C01362E82EF92E00E94E1046DEF77
:100D600072E0CE0101960E9482066AE174E0CE0133
:100D700001960E94240668E073E00E940E0664E17A
:100D800074E00E94240665E173E00E940E0664E1AF
:100D90000E94DD0562E273E00E940E06632D0E9450
:100DA000DD050E942305CE0101960E94810510E019
:100DB00000E0F501848195810817190708F0A9C0A2
:100DC00032E7632E32E0732EF12CE12CF5018481A1
:100DD0009581F8E2EF16F10409F462C008171907CB
:100DE00008F056C0F50180819181009709F450C048
:100DF000800F911FFC018081F30191913F019813B5
:100E00004BC08E3209F446C088E0512C282F215067
:100E1000330B6901C70123E0880F991F2A95E1F779
:100E2000FC01EE5CFE4F4F01852D90E08C159D0579
:100E30009CF53091700320916F0332136AC0E4E097
:100E4000F1E02181219321E0EB30F207D1F7880D09
:100E5000991DFC01808180930B0194E1492E0E9431
:100E60009C044A944110FBCFECE1F1E0DF0187E004
:100E700011969C9111979D938150D1F7DF0118979E
:100E80008C918783FD01A450B14081F75394CCCF5E
:100E900080E0B2CF84E0B9CF3FEFE31AF30A96CFF8
:100EA00001970817190791F5F12CEE24EA94909117
:100EB000700380916F0398132CC0E4E0F1E081810E
:100EC00081938BE091E08E179F07C9F7E0920B01A9
:100ED00084E1D82E0E949C04DA94D110FBCFECE17F
:100EE000F1E0DF0187E011969C9111979D9381506D
:100EF000D1F7DF0118978C918783FD0124E031E061
:100F00002A173B0771F7F3943F10D1CF0F5F1F4FA4
:100F100050CF26960FB6F894DEBF0FBECDBFDF913F
:100F2000CF911F910F91FF90EF90DF90CF90BF90E6
:100F3000AF909F908F907F906F905F904F903F9079
:100F400008954F925F926F927F928F929F92AF928D
:100F5000BF92CF92DF92EF92FF920F931F93CF93A6
:100F6000DF9300D000D000D0CDB7DEB76C01062FE4
:100F700081E393E00E94E1046DEF72E0CE010196FF
:100F80000E9482066AE174E0CE0101960E94240666
:100F900068E073E00E940E0664E174E00E9424069B
:100FA00065E173E00E940E0664E10E94DD0562E2E5
:100FB00073E00E940E06602F0E94DD050E9423054B
:100FC000CE0101960E948105F60164807580F1E0F2
:100FD0006F1A710855245A9477FC90C032E7832E1B
:100FE00032E0932EF12CE12CF60184819581681674
:100FF000790608F081C080819181009709F47CC056
:10100000860D971DFC018081F40191914F01981389
:1010100067C014E08E3209F018E01150C70123E0D8
:10102000880F991F2A95E1F79C012E5C3E4F5901CC
:101030009091700380916F03981360C0E4E0F1E039
:101040008181819331E0EB30F307D1F7F501E10FB6
:10105000F11D808180930B0194E1492E0E945E0472
:101060004A944110FBCFECE1F1E0DF0187E01196FB
:101070009C9111979D938150D1F7DF0118978C9126
:101080008783FD01A450B14081F7115089F66114A6
:10109000710431F5E4E0F1E08181819321E0EB30EE
:1010A000F207D1F750920B0184E1B82E0E945E0442
:1010B000BA94B110FBCFECE1F1E0DF0187E01196CB
:1010C0009C9111979D938150D1F7DF0118978C91D6
:1010D0008783FD01A450B14081F71F5F0113DACF70
:1010E0008FEFE81AF80AE8E2EE16F10409F07CCF77
:1010F000F1E06F1A710870CF80E086CF26960FB6A8
:10110000F894DEBF0FBECDBFDF91CF911F910F913D
:10111000FF90EF90DF90CF90BF90AF909F908F9017
:101120007F906F905F904F900895CF93DF93CDB7EE
:10113000DEB72F970FB6F894DEBF0FBECDBF0E946B
:10114000F80480916F03811104C08CE393E00E9446
:10115000E10480916F038F5F8330E0F580936F032C
:101160008EEA92E00E94E10480916F031B861A864A
:101170001D861C861F861E864AE0BE016F5F7F4F5C
:1011800090E00E94B90CBE016F5F7F4FCE010A96BE
:101190000E9458066BE473E0CE0101960E9482061D
:1011A000BE01665F7F4FCE0101960E9424060E9419
:1011B0002305CE0101960E948105CE010A960E9468
:1011C00081052F960FB6F894DEBF0FBECDBFDF911D
:1011D000CF91089581E0C2CF1F920F920FB60F9268
:1011E00011242F933F938F939F93AF93BF9380913D
:1011F0006B0390916C03A0916D03B0916E033091DD
:10120000660323E0230F2D3758F50196A11DB11D6C
:101210002093660380936B0390936C03A0936D03FC
:10122000B0936E038091670390916803A091690366
:10123000B0916A030196A11DB11D8093670390933D
:101240006803A0936903B0936A03BF91AF919F9124
:101250008F913F912F910F900FBE0F901F90189577
:1012600026E8230F0296A11DB11DD2CF1F920F9227
:101270000FB60F9211242F933F934F935F936F9369
:101280007F938F939F93AF93BF93EF93FF93E091DF
:101290000201F09103010995FF91EF91BF91AF9188
:1012A0009F918F917F916F915F914F913F912F917E
:1012B0000F900FBE0F901F9018951F920F920FB6B0
:1012C0000F9211242F933F934F935F936F937F93CC
:1012D0008F939F93AF93BF93EF93FF93E0910001A0
:1012E000F09101010995FF91EF91BF91AF919F910D
:1012F0008F917F916F915F914F913F912F910F90BF
:101300000FBE0F901F9018951F920F920FB60F925D
:1013100011242F933F934F935F936F937F938F93FA
:101320009F93AF93BF93EF93FF9381E793E00E9466
:10133000CF03FF91EF91BF91AF919F918F917F91DB
:101340006F915F914F913F912F910F900FBE0F9032
:101350001F9018951F920F920FB60F9211242F9382
:101360008F939F93EF93FF93E0918103F09182031A
:101370008081E0918703F091880382FD1BC09081FA
:1013800080918A038F5F8F7320918B03821741F0C6
:10139000E0918A03F0E0EF58FC4F958F80938A0329
:1013A000FF91EF919F918F912F910F900FBE0F9012
:1013B0001F9018958081F4CFE1E7F3E01382128249
:1013C00088EE93E0A0E0B0E084839583A683B783A2
:1013D0008EE992E09183808385EC90E09587848705
:1013E00084EC90E09787868780EC90E0918B808BEF
:1013F00081EC90E0938B828B82EC90E0958B848BD8
:1014000086EC90E0978B868B118E128E138E148E45
:10141000A0E2B4E088E015968C9315978BE01696C1
:101420008C931697E0EBF1E0E4911796EC93179705
:10143000ECE9F1E0E4911896EC93189740E85EE34C
:1014400060E070E01D964D935D936D937C93509793
:101450006EEA72E08AE194E00E9482066EEA72E02F
:1014600084E194E00E9482066EEA72E08EE094E0ED
:101470000C948206CF93DF93CDB7DEB7A7970FB654
:10148000F894DEBF0FBECDBF789484B5826084BD72
:1014900084B5816084BD85B5826085BD85B5816078
:1014A00085BD80916E00816080936E0010928100F6
:1014B00080918100826080938100809181008160B1
:1014C0008093810080918000816080938000809172
:1014D000B10084608093B1008091B00081608093FE
:1014E000B00080917A00846080937A0080917A00C5
:1014F000826080937A0080917A00816080937A0084
:1015000080917A00806880937A001092C100E09107
:101510008103F091820382E08083E0917D03F0916A
:101520007E031082E0917F03F09180038FEC808333
:1015300010928903E0918503F091860386E0808311
:10154000E0918303F0918403808180618083E09146
:101550008303F0918403808188608083E09183031A
:10156000F0918403808180688083E0918303F0910F
:10157000840380818F7D808362E0809125040E94B6
:10158000B8012FB7F89480916B0390916C03A091F0
:101590006D03B0916E032FBF805D9740A109B10923
:1015A0008093290490932A04A0932B04B0932C04D5
:1015B00087E38093320461E08BE00E94B80161E030
:1015C0008CE00E94B80161E08DE00E94B80161E00A
:1015D0008AE00E94B80161E089E00E94B80162E0FF
:1015E00082E00E94B80162E083E00E94B80180E1DD
:1015F00095E09093010180930001809169008360E0
:1016000080936900E89A85E998E0909303018093BC
:101610000201809169008C6080936900E99A90E0F2
:10162000E92E90E0F92E80916F03809370030E9461
:101630004002882341F0809126048C3009F47CC05C
:1016400038F48B30F1F060E070E080EC9FE741C04F
:1016500085518230C0F710912204612F70E0762FFF
:10166000662766277F7780912304682B90E080E0CF
:101670000E941A0F2DEC3CEC4CEC5DE30E94570FDE
:1016800077C06091220470E090E080E00E941A0F21
:101690004B015C011091230417FF0AC0AC019B01B0
:1016A00060E070E080E89FEB0E944C104B015C0111
:1016B0001F70612F70E090E080E00E941C0F2DEC05
:1016C0003CEC4CEC5DE30E94570FA50194010E9495
:1016D0004D101BA21AA21DA21CA21FA21EA28E01A7
:1016E0000F5F1F4F22E044E00E94900C009709F426
:1016F00043C0BC01CE0182960E945806BE016E5DB9
:101700007F4F8AE194E00E943605CE0182960E94C6
:1017100081050E944002882351F0809126048B307D
:1017200030F08D3070F18551823008F4ACC060E04B
:1017300070E080EC9FE741C010912204612F70E0BF
:1017400090E080E00E941A0F4B015C01609123043D
:101750006F7070E090E080E00E941C0F2DEC3CEC7C
:101760004CEC5DE30E94570FA50194010E944D10BF
:1017700017FFAFCF9058ADCFCE0182960E946F0574
:10178000BDCF6091210470E090E080E00E941C0FCA
:101790002DEC3CEC4CEC5DE30E94570F4B015C01DF
:1017A0006091200470E090E080E00E941C0F9B019B
:1017B000AC01C501B4010E944D101BA21AA21DA2CA
:1017C0001CA21FA21EA20E94B910CB014AE0BE01BA
:1017D0006F5F7F4F0E94AE0CBE016F5F7F4FCE01E7
:1017E00082960E945806BE016E5D7F4F84E194E0B0
:1017F0000E943605CE0182960E9481056AE174E05E
:10180000CE0101960E94790661E673E0CE01019651
:101810000E940E0664E174E00E94240664E673E010
:101820000E940E06BC018EE094E00E946206CE018A
:1018300001960E94810510916F031130B1F11230B1
:1018400009F452C06EE074E0CE0101960E94790660
:1018500080917003181305C068E2CE0101960E94C2
:101860009306CE0101960E9481056EE074E0CE01E0
:1018700001960E9479069091700380916F039813EE
:1018800023C068E23CC06091200470912104762757
:101890006727762790E080E00E941A0F2DEC3CEC41
:1018A0004CEC5DE30E94570F88CF6EE074E0CE01F0
:1018B00001960E94790680917003813029F460E2DC
:1018C000CE0101960E949306CE0101960E948105E9
:1018D000E114F10409F4A7CE0E94BB03882309F4A4
:1018E000A2CE0E9400009FCE6EE074E0CE01019671
:1018F0000E9479068091700360E2823029F7CE0160
:1019000001960E94A107E0CF8EE094E00E9481053D
:1019100084E194E00E9481058AE194E00C948105C1
:10192000EF920F931F93CF93DF93E80134E047FDCD
:1019300034E1042E000C550B57FF03C0519541951F
:101940005109E32E022F242FAE010E94D30CCE01A9
:10195000DF91CF911F910F91EF900895BB274A30EF
:1019600031F4992322F4BDE2909581959F4F0C9418
:10197000BA0CBB27FB015527AA27880F991FAA1F5E
:10198000A41710F0A41B83955051B9F7A05DAA339A
:1019900008F0A95DA193009779F7B111B193119265
:1019A000CB010C940A0FA9E0B0E0E9EDFCE00C9447
:1019B0001B106A01F22EB02E102FFBE3AF2EA016E3
:1019C00008F41BE31F5F012F27E0AE014F5F5F4F5D
:1019D0000E94320EBC018981982F9970913009F4D0
:1019E0003FC09BE2E1FC04C09E2D9170E0FC3AC038
:1019F0005E2D5071E82FE87083FF46C084E091119E
:101A000001C083E0EF2DE81B8F1508F0E0E0D60160
:101A10008E2F20E2552351F1992329F0D6019C9372
:101A2000C60101966C0196012D5F3F4FE2FE24C076
:101A30008EE4D6018C9391E411969C9311971296A3
:101A40008C93D9018E2F90E281111BC0E20FF32FEE
:101A5000F11D10828EEF9FEF2996ECE00C94371069
:101A60009DE2C6CF90E2C4CF2D9381508111FCCF6F
:101A7000CE0ED11CE0E0D0CF8EE6D6018C9391E65D
:101A8000DBCF9D938150E0CF482F447082FF3DC053
:101A900084E0911101C083E08F1510F4EF2DE81B55
:101AA000D6018E2F20E2552309F1992329F0D60182
:101AB0009C93C60101966C0196012D5F3F4FE2FE9B
:101AC0001BC089E4D6018C938EE411968C931197F8
:101AD00086E412968C93D9018E2F90E2882309F424
:101AE000B5CF9D938150FACF2D9381508111FCCFBA
:101AF000CE0ED11CE0E0D9CF89E6D6018C938EE6DC
:101B000011968C93119786E6E4CF9B0177FF02C074
:101B100030E020E0A1E0B0E0911102C0B0E0A0E030
:101B2000F9013196AE0FBF1F8B2C912CBB2009F40D
:101B300061C05401EFEFAE1ABE0AAA0DBB1DFA1622
:101B40001B0619F014F04F2D4A1B511188C0E3FCFD
:101B500059C07601A42FB0E2A1114FC0C40ED11C10
:101B6000992309F45BC040E0D6011196F6019083F9
:101B70006D01552309F448C0012F060F9A81582F93
:101B8000507184FF03C0913309F4015010160CF01A
:101B900047C0093008F008E0EEE2FE2E5B01A01A13
:101BA000B10885019194819491082F3F320729F45F
:101BB000D601FC92F60131966F016217730794F11A
:101BC000021713077CF5DB01A21BB30BAA24A39415
:101BD000B12CAC0EBD1EAA0DBB1D11968C912150CF
:101BE0003109D601119628153905F4F0F6018083E4
:101BF0006D01DBCFB12CA12CA0CFF701B1937F01F8
:101C0000A150AACF9111B0CFD601942F50E302C0BA
:101C10005D9391509111FCCFC40ED11C40E0ACCF2C
:101C200001E0BACF80E3DBCF6217730731F496335C
:101C300088F4953311F4552369F0F6018083FD0192
:101C4000842F90E2811108C0A40FB11D1C9290E076
:101C500080E002CF81E3F1CF91938150F3CF9111D6
:101C600083CF8ACF283008F027E03327DA01990F95
:101C7000311D87FD916000966105710539F4326070
:101C80002E5F3D9330E32A95E1F708959F3F30F0B2
:101C900080387105610509F03C5F3C5F3D939130F0
:101CA00008F08068911DDF93CF931F930F93FF92ED
:101CB000EF92192F987F9695E92F96959695E90FB3
:101CC000FF27EE53FF4F99273327EE24FF24A70168
:101CD000E70105900894079428F4360FE71EF81ED4
:101CE000491F511D660F771F881F991F0694A1F782
:101CF0000590079428F4E70EF81E491F561FC11DD2
:101D0000770F881F991F661F0694A1F70590079407
:101D100028F4F80E491F561FC71FD11D880F991FA1
:101D2000661F771F0694A1F70590079420F4490FCA
:101D3000561FC71FD81F990F661F771F881F06944D
:101D4000A9F784911095177041F0D695C7955795CE
:101D50004795F794E7941A95C1F7E8E6F0E06894A0
:101D60001590159135916591959105907FE2739548
:101D7000E118F10A430B560BC90BD009C0F7E10C6F
:101D8000F11E431F561FC91FD01D7EF4703311F47E
:101D90008A95E6CFE894015030F0080F0AF4002746
:101DA000021708F4202F2395022F7A3328F079E3C5
:101DB0007D932A95E9F710C07D932A9589F60694BC
:101DC00097956795379517951794E118F10A430B86
:101DD000560BC90BD00998F023957E9173957A33F1
:101DE00008F070E37C932013B8F77E9170617D93C7
:101DF00030F0839571E37D9370E32A95E1F7112428
:101E0000EF90FF900F911F91CF91DF91992787FD60
:101E100090950895DC01FC01672F71917723E1F71C
:101E2000329704C07C916D9370836291AE17BF07A7
:101E3000C8F30895E89409C097FB3EF49095809507
:101E4000709561957F4F8F4F9F4F9923A9F0F92F80
:101E500096E9BB279395F695879577956795B795FE
:101E6000F111F8CFFAF4BB0F11F460FF1BC06F5FE4
:101E70007F4F8F4F9F4F16C0882311F096E911C0F6
:101E8000772321F09EE8872F762F05C0662371F017
:101E900096E8862F70E060E02AF09A95660F771F2B
:101EA000881FDAF7880F9695879597F908950E940D
:101EB0006A0F0C94DB0F0E94CD0F38F00E94D40FF4
:101EC00020F0952311F00C94C40F0C94CA0F112428
:101ED0000C940F100E94EC0F70F3959FC1F3950FB7
:101EE00050E0551F629FF001729FBB27F00DB11D9E
:101EF000639FAA27F00DB11DAA1F649F6627B00D2E
:101F0000A11D661F829F2227B00DA11D621F739F16
:101F1000B00DA11D621F839FA00D611D221F749F24
:101F20003327A00D611D231F849F600D211D822F6B
:101F3000762F6A2F11249F5750409AF0F1F0882392
:101F40004AF0EE0FFF1FBB1F661F771F881F9150BF
:101F50005040A9F79E3F510580F00C94C40F0C949B
:101F60000F105F3FE4F3983ED4F38695779567951D
:101F7000B795F795E7959F5FC1F7FE2B880F911DE9
:101F80009695879597F9089597F99F6780E870E08F
:101F900060E008959FEF80EC089500240A941616DF
:101FA000170618060906089500240A941216130647
:101FB000140605060895092E0394000C11F48823D5
:101FC00052F0BB0F40F4BF2B11F460FF04C06F5FF1
:101FD0007F4F8F4F9F4F089557FD9058440F551FC7
:101FE00059F05F3F71F04795880F97FB991F61F09B
:101FF0009F3F79F087950895121613061406551F12
:10200000F2CF4695F1DF08C0161617061806991F7D
:10201000F1CF86957105610508940895E894BB2772
:1020200066277727CB0197F908952F923F924F9219
:102030005F926F927F928F929F92AF92BF92CF9258
:10204000DF92EF92FF920F931F93CF93DF93CDB761
:10205000DEB7CA1BDB0B0FB6F894DEBF0FBECDBFD9
:1020600009942A88398848885F846E847D848C84AA
:102070009B84AA84B984C884DF80EE80FD800C81B3
:102080001B81AA81B981CE0FD11D0FB6F894DEBF96
:102090000FBECDBFED0108955058BB27AA270E945F
:1020A00064100C94DB0F0E94CD0F38F00E94D40F07
:1020B00020F039F49F3F19F426F40C94CA0F0EF463
:1020C000E095E7FB0C94C40FE92F0E94EC0F58F346
:1020D000BA17620773078407950720F079F4A6F50D
:1020E0000C940E100EF4E0950B2EBA2FA02D0B01C0
:1020F000B90190010C01CA01A0011124FF27591B4D
:1021000099F0593F50F4503E68F11A16F040A22F52
:10211000232F342F4427585FF3CF469537952795C3
:10212000A795F0405395C9F77EF41F16BA0B620BC2
:10213000730B840BBAF09150A1F0FF0FBB1F661F09
:10214000771F881FC2F70EC0BA0F621F731F841F4C
:1021500048F4879577956795B795F7959E3F08F072
:10216000B0CF9395880F08F09927EE0F9795879534
:1021700008950E94C0106894B1110C940F10089536
:102180000E94F40F88F09F5798F0B92F9927B75104
:10219000B0F0E1F0660F771F881F991F1AF0BA950B
:1021A000C9F714C0B13091F00E940E10B1E008954B
:1021B0000C940E10672F782F8827B85F39F0B93F3D
:1021C000CCF3869577956795B395D9F73EF49095BE
:1021D0008095709561957F4F8F4F9F4F0895EE0FBB
:1021E000FF1F0590F491E02D09940F931F93CF9357
:1021F000DF938230910510F482E090E0E0913504A5
:10220000F091360430E020E0B0E0A0E0309799F49F
:102210002115310509F44AC0281B390B243031053A
:10222000D8F58A819B816115710589F1FB01938342
:102230008283FE0111C040815181028113814817C0
:102240005907E0F04817590799F4109761F0129672
:102250000C93129713961C933296CF01DF91CF9176
:102260001F910F9108950093350410933604F4CF15
:102270002115310551F04217530738F0A901DB0150
:102280009A01BD01DF01F801C1CFEF01F9CF9093B1
:10229000360480933504CDCFFE01E20FF31F819306
:1022A00091932250310939832883D7CF2091330469
:1022B00030913404232B41F42091260130912701E1
:1022C000309334042093330420912401309125016C
:1022D0002115310541F42DB73EB7409128015091A9
:1022E0002901241B350BE0913304F0913404E217EB
:1022F000F307A0F42E1B3F0B2817390778F0AC0129
:102300004E5F5F4F2417350748F04E0F5F1F509305
:10231000340440933304819391939FCFF0E0E0E045
:102320009CCFCF93DF930097E9F0FC0132971382A3
:102330001282A0913504B0913604ED0130E020E026
:102340001097A1F420813181820F931F20913304D3
:10235000309134042817390709F061C0F093340430
:10236000E0933304DF91CF910895EA01CE17DF07A0
:10237000E8F54A815B819E0141155105B1F7E901FC
:10238000FB83EA8349915991C40FD51FEC17FD07D0
:1023900061F4808191810296840F951FE9019983F0
:1023A0008883828193819B838A83F0E0E0E01296A8
:1023B0008D919C9113970097B9F52D913C911197B0
:1023C000CD010296820F931F209133043091340483
:1023D0002817390739F6309751F5109236041092C4
:1023E0003504B0933404A0933304BCCFD383C283A9
:1023F00040815181840F951FC817D90761F44E5F42
:102400005F4F88819981480F591F518340838A818A
:102410009B81938382832115310509F0B0CFF0931E
:102420003604E09335049ECFFD01DC01C0CF13825A
:102430001282D7CFB0E0A0E0E0E2F2E10C941710F6
:102440008C01009751F4CB010E94F5108C01C8015A
:10245000CDB7DEB7E0E10C943310FC01E60FF71FB7
:102460009C0122503109E217F30708F49DC0D901FD
:10247000CD91DC911197C617D70798F0C530D105DB
:1024800030F3CE0104978617970708F3C61BD70BC6
:102490002297C193D1936D937C93CF010E949111A8
:1024A000D6CF5B01AC1ABD0A4C018C0E9D1EA091CB
:1024B0003504B0913604512C412CF12CE12C1097AD
:1024C00031F580913304909134048815990509F011
:1024D0005CC04616570608F058C0809124019091C0
:1024E0002501009741F48DB79EB740912801509186
:1024F0002901841B950BE817F90708F055C0F093E4
:102500003404E0933304F90171836083A0CF8D918B
:102510009C91119712966C90129713967C9013973A
:10252000A815B90559F56C0142E0C40ED11CCA14B6
:10253000DB0420F1AC014A195B09DA011296159708
:1025400080F06282738251834083D9016D937C93C2
:10255000E114F10471F0D7011396FC93EE931297F6
:1025600076CF22968C0F9D1FF90191838083F30112
:10257000EFCFF0933604E093350469CF481659063F
:1025800008F42C017D01D3019ACFCB010E94F510F4
:102590007C01009749F0AE01B8010E94D712C80132
:1025A0000E949111870153CF10E000E050CFFB0152
:1025B000DC0102C001900D9241505040D8F70895BF
:1025C000FB01DC0101900D920020E1F7089510E07D
:1025D000CFEDD0E004C0FE010E94EF102196C03E76
:1025E000D107C9F7F894FFCF50035003FFFFFFFF57
:1025F000FFFFFFFFFFFFFFFFFFFFFFFFFFFFFFFFEB
:10260000FFFFFFFFFFFFFFFFFFFFFFFF000037049B
:1026100080000102040810204080FFC080B7B7800E
:10262000C0FFFF8080B6B680C9FFFFC180BEBE9CE0
:10263000DDFFFF8080BEBE80C1FFFF8080B6B6BEDA
:10264000BEFFFF8080B7B7BFBFFFFFC180BEBA9893
:10265000D9FFFF8080F7F78080FFFFFFBE8080BE3C
:10266000FFFFFFF9F8BE8081BFFFFF8080E3C99CB8
:10267000BEFFFF8080FEFEFEFEFFFF8080CFE7CF23
:102680008080FF8080CFE7F38080FFC180BEBE8066
:10269000C1FFFF8080BBBB83C7FFFFC381BDBD807F
:1026A000C2FFFF8080B3B184CEFFFFCD84B6B69069
:1026B000D9FFFF9FBF8080BF9FFFFF8180FEFE800C
:1026C00080FFFF8381FCFC8183FFFF8080F9F3F9A9
:1026D0008080FF9C88E3F7E3889CFF8F87F0F0877A
:1026E0008FFFFFBCB8B2A68E9EFFFFFEEE8080FE7D
:1026F000FEFFFFDC98BAB686CEFFFFDD9CB6B68043
:10270000C9FFFFF3EBDB8080FBFFFF8D8CAEAEA03B
:10271000B1FFFFC180B6B690D9FFFF9F9FB8A087D9
:102720009FFFFFC980B6B680C9FFFFCD84B6B680D3
:10273000C1FFFFC180AEB680C1FFFFFFFFFFFFFFFB
:10274000FFFFFFFCFCFFFFFFFFFFFF9D99F3E7CCBE
:10275000DCFFFF3FC180BEBE9CFF41424344454673
:102760004748494A4B4C4D4E4F5051525354555681
:102770005758595A31323334353637383930202E9C
:10278000256300000000F10351037E033E04AF0304
:102790008D03A1030D0A00586F61206D616E2068E2
:1027A000696E68210048652074686F6E67206461F7
:1027B0006E672074726F6E672063686520646F2097
:1027C0004155544F00446F692073616E6720636800
:1027D0006520646F204155544F002D2D416E696D69
:1027E00020412D2D004E6869657420646F3A2000E9
:1027F0002743207C20446F20616D3A200025207CF7
:1028000020446F207472653A2000207C204361636D
:102810006820646F616E3A20002D2D416E696D2035
:10282000422D2D004155544F202D3E204D414E55F7
:10283000414C0043687579656E2073616E6720684E
:0E2840006F617420616E682000632000250027
:107E0000112484B714BE81FFF0D085E080938100F7
:107E100082E08093C00088E18093C10086E0809377
:107E2000C20080E18093C4008EE0C9D0259A86E02C
:107E300020E33CEF91E0309385002093840096BBD3
:107E4000B09BFECF1D9AA8958150A9F7CC24DD24C4
:107E500088248394B5E0AB2EA1E19A2EF3E0BF2EE7
:107E6000A2D0813461F49FD0082FAFD0023811F036
:107E7000013811F484E001C083E08DD089C08234E0
:107E800011F484E103C0853419F485E0A6D080C0E4
:107E9000853579F488D0E82EFF2485D0082F10E0AE
:107EA000102F00270E291F29000F111F8ED06801E7
:107EB0006FC0863521F484E090D080E0DECF843638
:107EC00009F040C070D06FD0082F6DD080E0C81688
:107ED00080E7D80618F4F601B7BEE895C0E0D1E017
:107EE00062D089930C17E1F7F0E0CF16F0E7DF06D8
:107EF00018F0F601B7BEE89568D007B600FCFDCFD4
:107F0000A601A0E0B1E02C9130E011968C91119780
:107F100090E0982F8827822B932B1296FA010C0160
:107F200087BEE89511244E5F5F4FF1E0A038BF0790
:107F300051F7F601A7BEE89507B600FCFDCF97BE46
:107F4000E89526C08437B1F42ED02DD0F82E2BD052
:107F50003CD0F601EF2C8F010F5F1F4F84911BD097
:107F6000EA94F801C1F70894C11CD11CFA94CF0C13
:107F7000D11C0EC0853739F428D08EE10CD085E9AC
:107F80000AD08FE07ACF813511F488E018D01DD067
:107F900080E101D065CF982F8091C00085FFFCCF94
:107FA0009093C60008958091C00087FFFCCF809118
:107FB000C00084FD01C0A8958091C6000895E0E648
:107FC000F0E098E1908380830895EDDF803219F02E
:107FD00088E0F5DFFFCF84E1DECF1F93182FE3DFCA
:107FE0001150E9F7F2DF1F91089580E0E8DFEE27F6
:047FF000FF270994CA
:027FFE00040479
:00000001FF
